{
  "contractName": "Fabric",
  "abi": [
    {
      "constant": true,
      "inputs": [],
      "name": "code",
      "outputs": [
        {
          "internalType": "bytes",
          "name": "",
          "type": "bytes"
        }
      ],
      "payable": false,
      "stateMutability": "view",
      "type": "function"
    },
    {
      "constant": true,
      "inputs": [],
      "name": "vaultCodeHash",
      "outputs": [
        {
          "internalType": "bytes32",
          "name": "",
          "type": "bytes32"
        }
      ],
      "payable": false,
      "stateMutability": "view",
      "type": "function"
    }
  ],
  "bytecode": "0x61017b610026600b82828239805160001a60731461001957fe5b30600052607381538281f3fe73000000000000000000000000000000000000000030146080604052600436106100405760003560e01c806324c12bf6146100455780637ff79e0f146100c8575b600080fd5b61004d6100e6565b6040518080602001828103825283818151815260200191508051906020019080838360005b8381101561008d578082015181840152602081019050610072565b50505050905090810190601f1680156100ba5780820380516001836020036101000a031916815260200191505b509250505060405180910390f35b6100d061011f565b6040518082815260200191505060405180910390f35b6040518060400160405280601c81526020017f6012600081600a8239f360008060448082803781806038355af132ff0000000081525081565b7ffa3da1081bc86587310fce8f3a5309785fc567b9b20875900cb289302d6bfa9760001b8156fea265627a7a723158203274dc3723d2a0ba53f51a6853bcaf9c08380eb67516cc911bb6804f423603a264736f6c634300050b0032",
  "source": "pragma solidity ^0.5.11;\n\nimport \"../interfaces/IERC20.sol\";\n\n\n/**\n * @title Fabric\n * @dev Create deterministics vaults.\n */\nlibrary Fabric {\n    /*Vault bytecode\n\n        def _fallback() payable:\n            call cd[56] with:\n                funct call.data[0 len 4]\n                gas cd[56] wei\n                args call.data[4 len 64]\n            selfdestruct(tx.origin)\n\n        // Constructor bytecode\n        0x6012600081600A8239f3\n\n        0x60 12 - PUSH1 12           // Size of the contract to return\n        0x60 00 - PUSH1 00           // Memory offset to return stored code\n        0x81    - DUP2  12           // Size of code to copy\n        0x60 0a - PUSH1 0A           // Start of the code to copy\n        0x82    - DUP3  00           // Dest memory for code copy\n        0x39    - CODECOPY 00 0A 12  // Code copy to memory\n        0xf3    - RETURN 00 12       // Return code to store\n\n        // Deployed contract bytecode\n        0x60008060448082803781806038355AF132FF\n\n        0x60 00 - PUSH1 00                    // Size for the call output\n        0x80    - DUP1  00                    // Offset for the call output\n        0x60 44 - PUSH1 44                    // Size for the call input\n        0x80    - DUP1  44                    // Size for copying calldata to memory\n        0x82    - DUP3  00                    // Offset for calldata copy\n        0x80    - DUP1  00                    // Offset for destination of calldata copy\n        0x37    - CALLDATACOPY 00 00 44       // Execute calldata copy, is going to be used for next call\n        0x81    - DUP2  00                    // Offset for call input\n        0x80    - DUP1  00                    // Amount of ETH to send during call\n        0x60 38 - PUSH1 38                    // calldata pointer to load value into stack\n        0x35    - CALLDATALOAD 38 (A)         // Load value (A), address to call\n        0x5a    - GAS                         // Remaining gas\n        0xf1    - CALL (A) (A) 00 00 44 00 00 // Execute call to address (A) with calldata mem[0:64]\n        0x32    - ORIGIN (B)                  // Dest funds for selfdestruct\n        0xff    - SELFDESTRUCT (B)            // selfdestruct contract, end of execution\n    */\n    bytes public constant code = hex\"6012600081600A8239F360008060448082803781806038355AF132FF\";\n    bytes32 public constant vaultCodeHash = bytes32(0xfa3da1081bc86587310fce8f3a5309785fc567b9b20875900cb289302d6bfa97);\n\n    /**\n    * @dev Get a deterministics vault.\n    */\n    function getVault(bytes32 _key) internal view returns (address) {\n        return address(\n            uint256(\n                keccak256(\n                    abi.encodePacked(\n                        byte(0xff),\n                        address(this),\n                        _key,\n                        vaultCodeHash\n                    )\n                )\n            )\n        );\n    }\n\n    /**\n    * @dev Create deterministic vault.\n    */\n    function executeVault(bytes32 _key, IERC20 _token, address _to) internal returns (uint256 value) {\n        address addr;\n        bytes memory slotcode = code;\n\n        /* solium-disable-next-line */\n        assembly{\n          // Create the contract arguments for the constructor\n          addr := create2(0, add(slotcode, 0x20), mload(slotcode), _key)\n          if iszero(extcodesize(addr)) {\n            revert(0, 0)\n          }\n        }\n\n        value = _token.balanceOf(addr);\n        /* solium-disable-next-line */\n        (bool success, ) = addr.call(\n            abi.encodePacked(\n                abi.encodeWithSelector(\n                    _token.transfer.selector,\n                    _to,\n                    value\n                ),\n                address(_token)\n            )\n        );\n\n        require(success, \"error pulling tokens\");\n    }\n}",
  "sourcePath": "/Users/agusx1211/Documents/workspaces/uniswapex/contracts/libs/Fabric.sol",
  "compiler": {
    "name": "solc",
    "version": "0.5.11+commit.c082d0b4.Emscripten.clang"
  },
  "schemaVersion": "3.0.11",
  "updatedAt": "2019-09-14T11:13:08.950Z",
  "devdoc": {
    "details": "Create deterministics vaults.",
    "methods": {},
    "title": "Fabric"
  },
  "userdoc": {
    "methods": {}
  }
}