{
  "contractName": "UniswapEX",
  "abi": [
    {
      "constant": true,
      "inputs": [],
      "name": "uniswapFactory",
      "outputs": [
        {
          "internalType": "contract UniswapFactory",
          "name": "",
          "type": "address"
        }
      ],
      "payable": false,
      "stateMutability": "view",
      "type": "function"
    },
    {
      "constant": true,
      "inputs": [],
      "name": "ETH_ADDRESS",
      "outputs": [
        {
          "internalType": "address",
          "name": "",
          "type": "address"
        }
      ],
      "payable": false,
      "stateMutability": "view",
      "type": "function"
    },
    {
      "payable": true,
      "stateMutability": "payable",
      "type": "fallback"
    },
    {
      "constant": false,
      "inputs": [
        {
          "internalType": "contract IERC20",
          "name": "_from",
          "type": "address"
        },
        {
          "internalType": "contract IERC20",
          "name": "_to",
          "type": "address"
        },
        {
          "internalType": "uint256",
          "name": "_amount",
          "type": "uint256"
        },
        {
          "internalType": "uint256",
          "name": "_return",
          "type": "uint256"
        },
        {
          "internalType": "uint256",
          "name": "_fee",
          "type": "uint256"
        }
      ],
      "name": "create",
      "outputs": [],
      "payable": false,
      "stateMutability": "nonpayable",
      "type": "function"
    },
    {
      "constant": false,
      "inputs": [
        {
          "internalType": "contract IERC20",
          "name": "_from",
          "type": "address"
        },
        {
          "internalType": "contract IERC20",
          "name": "_to",
          "type": "address"
        },
        {
          "internalType": "uint256",
          "name": "_amount",
          "type": "uint256"
        },
        {
          "internalType": "uint256",
          "name": "_return",
          "type": "uint256"
        },
        {
          "internalType": "uint256",
          "name": "_fee",
          "type": "uint256"
        },
        {
          "internalType": "address payable",
          "name": "_owner",
          "type": "address"
        }
      ],
      "name": "execute",
      "outputs": [],
      "payable": false,
      "stateMutability": "nonpayable",
      "type": "function"
    }
  ],
  "bytecode": "0x608060405234801561001057600080fd5b50610d17806100206000396000f3fe60806040526004361061003f5760003560e01c8063891b1a00146100415780638bdb2afa146100d0578063a734f06e14610127578063cc238da71461017e575b005b34801561004d57600080fd5b506100ce600480360360a081101561006457600080fd5b81019080803573ffffffffffffffffffffffffffffffffffffffff169060200190929190803573ffffffffffffffffffffffffffffffffffffffff16906020019092919080359060200190929190803590602001909291908035906020019092919050505061022d565b005b3480156100dc57600080fd5b506100e5610234565b604051808273ffffffffffffffffffffffffffffffffffffffff1673ffffffffffffffffffffffffffffffffffffffff16815260200191505060405180910390f35b34801561013357600080fd5b5061013c610259565b604051808273ffffffffffffffffffffffffffffffffffffffff1673ffffffffffffffffffffffffffffffffffffffff16815260200191505060405180910390f35b34801561018a57600080fd5b5061022b600480360360c08110156101a157600080fd5b81019080803573ffffffffffffffffffffffffffffffffffffffff169060200190929190803573ffffffffffffffffffffffffffffffffffffffff169060200190929190803590602001909291908035906020019092919080359060200190929190803573ffffffffffffffffffffffffffffffffffffffff169060200190929190505050610271565b005b5050505050565b6000809054906101000a900473ffffffffffffffffffffffffffffffffffffffff1681565b73eeeeeeeeeeeeeeeeeeeeeeeeeeeeeeeeeeeeeeee81565b73eeeeeeeeeeeeeeeeeeeeeeeeeeeeeeeeeeeeeeee73ffffffffffffffffffffffffffffffffffffffff168673ffffffffffffffffffffffffffffffffffffffff1614156104d757600082850390503373ffffffffffffffffffffffffffffffffffffffff166108fc849081150290604051600060405180830381858888f19350505050158015610306573d6000803e3d6000fd5b5060008060009054906101000a900473ffffffffffffffffffffffffffffffffffffffff1673ffffffffffffffffffffffffffffffffffffffff166306f2bf62886040518263ffffffff1660e01b8152600401808273ffffffffffffffffffffffffffffffffffffffff1673ffffffffffffffffffffffffffffffffffffffff16815260200191505060206040518083038186803b1580156103a757600080fd5b505afa1580156103bb573d6000803e3d6000fd5b505050506040513d60208110156103d157600080fd5b810190808051906020019092919050505090508073ffffffffffffffffffffffffffffffffffffffff1663ad65d76d83877fffffffffffffffffffffffffffffffffffffffffffffffffffffffffffffffff876040518563ffffffff1660e01b8152600401808481526020018381526020018273ffffffffffffffffffffffffffffffffffffffff1673ffffffffffffffffffffffffffffffffffffffff16815260200193505050506020604051808303818588803b15801561049357600080fd5b505af11580156104a7573d6000803e3d6000fd5b50505050506040513d60208110156104be57600080fd5b8101908080519060200190929190505050505050610cda565b73eeeeeeeeeeeeeeeeeeeeeeeeeeeeeeeeeeeeeeee73ffffffffffffffffffffffffffffffffffffffff168573ffffffffffffffffffffffffffffffffffffffff161415610840576000828401905060008060009054906101000a900473ffffffffffffffffffffffffffffffffffffffff1673ffffffffffffffffffffffffffffffffffffffff166306f2bf62896040518263ffffffff1660e01b8152600401808273ffffffffffffffffffffffffffffffffffffffff1673ffffffffffffffffffffffffffffffffffffffff16815260200191505060206040518083038186803b1580156105c657600080fd5b505afa1580156105da573d6000803e3d6000fd5b505050506040513d60208110156105f057600080fd5b810190808051906020019092919050505090508773ffffffffffffffffffffffffffffffffffffffff1663095ea7b3827fffffffffffffffffffffffffffffffffffffffffffffffffffffffffffffffff6040518363ffffffff1660e01b8152600401808373ffffffffffffffffffffffffffffffffffffffff1673ffffffffffffffffffffffffffffffffffffffff16815260200182815260200192505050602060405180830381600087803b1580156106aa57600080fd5b505af11580156106be573d6000803e3d6000fd5b505050506040513d60208110156106d457600080fd5b81019080805190602001909291905050505060008173ffffffffffffffffffffffffffffffffffffffff166395e3c50b88857fffffffffffffffffffffffffffffffffffffffffffffffffffffffffffffffff6040518463ffffffff1660e01b8152600401808481526020018381526020018281526020019350505050602060405180830381600087803b15801561076b57600080fd5b505af115801561077f573d6000803e3d6000fd5b505050506040513d602081101561079557600080fd5b810190808051906020019092919050505090503373ffffffffffffffffffffffffffffffffffffffff166108fc869081150290604051600060405180830381858888f193505050501580156107ee573d6000803e3d6000fd5b508373ffffffffffffffffffffffffffffffffffffffff166108fc8683039081150290604051600060405180830381858888f19350505050158015610837573d6000803e3d6000fd5b50505050610cd9565b60008060009054906101000a900473ffffffffffffffffffffffffffffffffffffffff1673ffffffffffffffffffffffffffffffffffffffff166306f2bf62886040518263ffffffff1660e01b8152600401808273ffffffffffffffffffffffffffffffffffffffff1673ffffffffffffffffffffffffffffffffffffffff16815260200191505060206040518083038186803b1580156108e057600080fd5b505afa1580156108f4573d6000803e3d6000fd5b505050506040513d602081101561090a57600080fd5b810190808051906020019092919050505090508673ffffffffffffffffffffffffffffffffffffffff1663095ea7b3827fffffffffffffffffffffffffffffffffffffffffffffffffffffffffffffffff6040518363ffffffff1660e01b8152600401808373ffffffffffffffffffffffffffffffffffffffff1673ffffffffffffffffffffffffffffffffffffffff16815260200182815260200192505050602060405180830381600087803b1580156109c457600080fd5b505af11580156109d8573d6000803e3d6000fd5b505050506040513d60208110156109ee57600080fd5b81019080805190602001909291905050505060008173ffffffffffffffffffffffffffffffffffffffff166395e3c50b8760017fffffffffffffffffffffffffffffffffffffffffffffffffffffffffffffffff6040518463ffffffff1660e01b8152600401808481526020018381526020018281526020019350505050602060405180830381600087803b158015610a8657600080fd5b505af1158015610a9a573d6000803e3d6000fd5b505050506040513d6020811015610ab057600080fd5b810190808051906020019092919050505090503373ffffffffffffffffffffffffffffffffffffffff166108fc859081150290604051600060405180830381858888f19350505050158015610b09573d6000803e3d6000fd5b5060008060009054906101000a900473ffffffffffffffffffffffffffffffffffffffff1673ffffffffffffffffffffffffffffffffffffffff166306f2bf62896040518263ffffffff1660e01b8152600401808273ffffffffffffffffffffffffffffffffffffffff1673ffffffffffffffffffffffffffffffffffffffff16815260200191505060206040518083038186803b158015610baa57600080fd5b505afa158015610bbe573d6000803e3d6000fd5b505050506040513d6020811015610bd457600080fd5b810190808051906020019092919050505090508073ffffffffffffffffffffffffffffffffffffffff1663ad65d76d868403887fffffffffffffffffffffffffffffffffffffffffffffffffffffffffffffffff886040518563ffffffff1660e01b8152600401808481526020018381526020018273ffffffffffffffffffffffffffffffffffffffff1673ffffffffffffffffffffffffffffffffffffffff16815260200193505050506020604051808303818588803b158015610c9857600080fd5b505af1158015610cac573d6000803e3d6000fd5b50505050506040513d6020811015610cc357600080fd5b8101908080519060200190929190505050505050505b5b50505050505056fea265627a7a7231582098a1fd2bc3456b2f9bec10891a6d4a9a82789328a2a10106cd3b558377f0af3964736f6c634300050b0032",
  "source": "pragma solidity ^0.5.11;\n\nimport \"./interfaces/IERC20.sol\";\nimport \"./interfaces/UniswapExchange.sol\";\nimport \"./interfaces/UniswapFactory.sol\";\nimport \"./libs/Fabric.sol\";\n\n\ncontract UniswapEX {\n    using Fabric for bytes32;\n\n    address public constant ETH_ADDRESS = address(0x00eeeeeeeeeeeeeeeeeeeeeeeeeeeeeeeeeeeeeeee);\n    uint256 private constant never = uint(-1);\n\n    UniswapFactory public uniswapFactory;\n\n    function create(\n        IERC20 _from,\n        IERC20 _to,\n        uint256 _amount,\n        uint256 _return,\n        uint256 _fee\n    ) external {\n\n    }\n\n    function execute(\n        IERC20 _from,\n        IERC20 _to,\n        uint256 _amount,\n        uint256 _return,\n        uint256 _fee,\n        address payable _owner\n    ) external {\n        if (address(_from) == ETH_ADDRESS) {\n            // Keep some eth for paying the fee\n            uint256 sell = _amount - _fee;\n            // Transfer fee\n            msg.sender.transfer(_fee);\n            // Convert using Uniswap\n            UniswapExchange uniswap = uniswapFactory.getExchange(address(_to));\n            uniswap.ethToTokenTransferInput.value(sell)(_return, never, _owner);\n        } else if (address(_to) == ETH_ADDRESS) {\n            // Add extra fee\n            uint256 buy = _return + _fee;\n\n            // Convert\n            UniswapExchange uniswap = uniswapFactory.getExchange(address(_from));\n            _from.approve(address(uniswap), never);\n            uint256 bought = uniswap.tokenToEthSwapInput(_amount, buy, never);\n\n            // Send fee and amount bought\n            msg.sender.transfer(_fee);\n            _owner.transfer(bought - _fee);\n        } else {\n            // Separate the two steps\n\n            // Convert to ETH\n            UniswapExchange uniswap = uniswapFactory.getExchange(address(_from));\n            _from.approve(address(uniswap), uint(-1));\n            uint256 bought = uniswap.tokenToEthSwapInput(_amount, 1, never);\n\n            // Send fee and amount bought\n            msg.sender.transfer(_fee);\n\n            // Convert to final token\n            UniswapExchange uniswapb = uniswapFactory.getExchange(address(_to));\n            uniswapb.ethToTokenTransferInput.value(bought - _fee)(_return, never, _owner);\n        }\n    }\n\n    function() external payable { }\n}\n",
  "sourcePath": "/Users/imazzara/Projects/uniswap-ex/contracts/UniswapEX.sol",
  "compiler": {
    "name": "solc",
    "version": "0.5.11+commit.c082d0b4.Emscripten.clang"
  },
  "schemaVersion": "3.0.13",
  "updatedAt": "2019-08-24T09:13:39.165Z",
  "devdoc": {
    "methods": {}
  },
  "userdoc": {
    "methods": {}
  }
}