{
  "contractName": "UniswapEX",
  "abi": [
    {
      "constant": true,
      "inputs": [],
      "name": "uniswapFactory",
      "outputs": [
        {
          "internalType": "contract UniswapFactory",
          "name": "",
          "type": "address"
        }
      ],
      "payable": false,
      "stateMutability": "view",
      "type": "function"
    },
    {
      "constant": true,
      "inputs": [],
      "name": "ETH_ADDRESS",
      "outputs": [
        {
          "internalType": "address",
          "name": "",
          "type": "address"
        }
      ],
      "payable": false,
      "stateMutability": "view",
      "type": "function"
    },
    {
      "constant": true,
      "inputs": [
        {
          "internalType": "bytes32",
          "name": "",
          "type": "bytes32"
        }
      ],
      "name": "ethDeposits",
      "outputs": [
        {
          "internalType": "uint256",
          "name": "",
          "type": "uint256"
        }
      ],
      "payable": false,
      "stateMutability": "view",
      "type": "function"
    },
    {
      "inputs": [
        {
          "internalType": "contract UniswapFactory",
          "name": "_uniswapFactory",
          "type": "address"
        }
      ],
      "payable": false,
      "stateMutability": "nonpayable",
      "type": "constructor"
    },
    {
      "payable": true,
      "stateMutability": "payable",
      "type": "fallback"
    },
    {
      "anonymous": false,
      "inputs": [
        {
          "indexed": false,
          "internalType": "uint256",
          "name": "_amount",
          "type": "uint256"
        },
        {
          "indexed": false,
          "internalType": "bytes",
          "name": "_data",
          "type": "bytes"
        }
      ],
      "name": "DepositETH",
      "type": "event"
    },
    {
      "anonymous": false,
      "inputs": [
        {
          "indexed": false,
          "internalType": "address",
          "name": "_from",
          "type": "address"
        },
        {
          "indexed": false,
          "internalType": "address",
          "name": "_to",
          "type": "address"
        },
        {
          "indexed": false,
          "internalType": "uint256",
          "name": "_amount",
          "type": "uint256"
        },
        {
          "indexed": false,
          "internalType": "uint256",
          "name": "_bought",
          "type": "uint256"
        },
        {
          "indexed": false,
          "internalType": "uint256",
          "name": "_fee",
          "type": "uint256"
        },
        {
          "indexed": false,
          "internalType": "address",
          "name": "_owner",
          "type": "address"
        },
        {
          "indexed": false,
          "internalType": "bytes32",
          "name": "_salt",
          "type": "bytes32"
        },
        {
          "indexed": false,
          "internalType": "address",
          "name": "_relayer",
          "type": "address"
        }
      ],
      "name": "Executed",
      "type": "event"
    },
    {
      "constant": true,
      "inputs": [
        {
          "internalType": "contract IERC20",
          "name": "_from",
          "type": "address"
        },
        {
          "internalType": "contract IERC20",
          "name": "_to",
          "type": "address"
        },
        {
          "internalType": "uint256",
          "name": "_return",
          "type": "uint256"
        },
        {
          "internalType": "uint256",
          "name": "_fee",
          "type": "uint256"
        },
        {
          "internalType": "address payable",
          "name": "_owner",
          "type": "address"
        },
        {
          "internalType": "bytes32",
          "name": "_salt",
          "type": "bytes32"
        }
      ],
      "name": "vaultOfOrder",
      "outputs": [
        {
          "internalType": "address",
          "name": "",
          "type": "address"
        }
      ],
      "payable": false,
      "stateMutability": "view",
      "type": "function"
    },
    {
      "constant": true,
      "inputs": [
        {
          "internalType": "contract IERC20",
          "name": "_from",
          "type": "address"
        },
        {
          "internalType": "contract IERC20",
          "name": "_to",
          "type": "address"
        },
        {
          "internalType": "uint256",
          "name": "_amount",
          "type": "uint256"
        },
        {
          "internalType": "uint256",
          "name": "_return",
          "type": "uint256"
        },
        {
          "internalType": "uint256",
          "name": "_fee",
          "type": "uint256"
        },
        {
          "internalType": "address payable",
          "name": "_owner",
          "type": "address"
        },
        {
          "internalType": "bytes32",
          "name": "_salt",
          "type": "bytes32"
        }
      ],
      "name": "encodeTokenOrder",
      "outputs": [
        {
          "internalType": "bytes",
          "name": "",
          "type": "bytes"
        }
      ],
      "payable": false,
      "stateMutability": "view",
      "type": "function"
    },
    {
      "constant": true,
      "inputs": [
        {
          "internalType": "address",
          "name": "_from",
          "type": "address"
        },
        {
          "internalType": "address",
          "name": "_to",
          "type": "address"
        },
        {
          "internalType": "uint256",
          "name": "_return",
          "type": "uint256"
        },
        {
          "internalType": "uint256",
          "name": "_fee",
          "type": "uint256"
        },
        {
          "internalType": "address payable",
          "name": "_owner",
          "type": "address"
        },
        {
          "internalType": "bytes32",
          "name": "_salt",
          "type": "bytes32"
        }
      ],
      "name": "encode",
      "outputs": [
        {
          "internalType": "bytes",
          "name": "",
          "type": "bytes"
        }
      ],
      "payable": false,
      "stateMutability": "pure",
      "type": "function"
    },
    {
      "constant": true,
      "inputs": [
        {
          "internalType": "bytes",
          "name": "_data",
          "type": "bytes"
        }
      ],
      "name": "decode",
      "outputs": [
        {
          "internalType": "address",
          "name": "_from",
          "type": "address"
        },
        {
          "internalType": "address",
          "name": "_to",
          "type": "address"
        },
        {
          "internalType": "uint256",
          "name": "_return",
          "type": "uint256"
        },
        {
          "internalType": "uint256",
          "name": "_fee",
          "type": "uint256"
        },
        {
          "internalType": "address payable",
          "name": "_owner",
          "type": "address"
        }
      ],
      "payable": false,
      "stateMutability": "pure",
      "type": "function"
    },
    {
      "constant": true,
      "inputs": [
        {
          "internalType": "contract IERC20",
          "name": "_from",
          "type": "address"
        },
        {
          "internalType": "contract IERC20",
          "name": "_to",
          "type": "address"
        },
        {
          "internalType": "uint256",
          "name": "_return",
          "type": "uint256"
        },
        {
          "internalType": "uint256",
          "name": "_fee",
          "type": "uint256"
        },
        {
          "internalType": "address payable",
          "name": "_owner",
          "type": "address"
        },
        {
          "internalType": "bytes32",
          "name": "_salt",
          "type": "bytes32"
        }
      ],
      "name": "exists",
      "outputs": [
        {
          "internalType": "bool",
          "name": "",
          "type": "bool"
        }
      ],
      "payable": false,
      "stateMutability": "view",
      "type": "function"
    },
    {
      "constant": true,
      "inputs": [
        {
          "internalType": "contract IERC20",
          "name": "_from",
          "type": "address"
        },
        {
          "internalType": "contract IERC20",
          "name": "_to",
          "type": "address"
        },
        {
          "internalType": "uint256",
          "name": "_return",
          "type": "uint256"
        },
        {
          "internalType": "uint256",
          "name": "_fee",
          "type": "uint256"
        },
        {
          "internalType": "address payable",
          "name": "_owner",
          "type": "address"
        },
        {
          "internalType": "bytes32",
          "name": "_salt",
          "type": "bytes32"
        }
      ],
      "name": "canFill",
      "outputs": [
        {
          "internalType": "bool",
          "name": "",
          "type": "bool"
        }
      ],
      "payable": false,
      "stateMutability": "view",
      "type": "function"
    },
    {
      "constant": false,
      "inputs": [
        {
          "internalType": "bytes",
          "name": "_data",
          "type": "bytes"
        }
      ],
      "name": "depositETH",
      "outputs": [],
      "payable": true,
      "stateMutability": "payable",
      "type": "function"
    },
    {
      "constant": false,
      "inputs": [
        {
          "internalType": "contract IERC20",
          "name": "_from",
          "type": "address"
        },
        {
          "internalType": "contract IERC20",
          "name": "_to",
          "type": "address"
        },
        {
          "internalType": "uint256",
          "name": "_return",
          "type": "uint256"
        },
        {
          "internalType": "uint256",
          "name": "_fee",
          "type": "uint256"
        },
        {
          "internalType": "address payable",
          "name": "_owner",
          "type": "address"
        },
        {
          "internalType": "bytes32",
          "name": "_salt",
          "type": "bytes32"
        }
      ],
      "name": "cancel",
      "outputs": [],
      "payable": false,
      "stateMutability": "nonpayable",
      "type": "function"
    },
    {
      "constant": false,
      "inputs": [
        {
          "internalType": "contract IERC20",
          "name": "_from",
          "type": "address"
        },
        {
          "internalType": "contract IERC20",
          "name": "_to",
          "type": "address"
        },
        {
          "internalType": "uint256",
          "name": "_return",
          "type": "uint256"
        },
        {
          "internalType": "uint256",
          "name": "_fee",
          "type": "uint256"
        },
        {
          "internalType": "address payable",
          "name": "_owner",
          "type": "address"
        },
        {
          "internalType": "bytes32",
          "name": "_salt",
          "type": "bytes32"
        }
      ],
      "name": "execute",
      "outputs": [],
      "payable": false,
      "stateMutability": "nonpayable",
      "type": "function"
    }
  ],
  "bytecode": "0x608060405234801561001057600080fd5b50604051612e85380380612e858339818101604052602081101561003357600080fd5b8101908080519060200190929190505050806000806101000a81548173ffffffffffffffffffffffffffffffffffffffff021916908373ffffffffffffffffffffffffffffffffffffffff16021790555050612df1806100946000396000f3fe6080604052600436106100a75760003560e01c8063a734f06e11610064578063a734f06e14610597578063bc0f9f97146105ee578063deec7c8f1461069d578063e5c5e9a314610716578063ebd9c39c14610850578063f4dca8e71461089f576100a7565b8063065f6100146100a95780630af1245c146101d15780632efae771146102805780633e402aed146103475780634563c1161461040e5780638bdb2afa14610540575b005b3480156100b557600080fd5b50610156600480360360c08110156100cc57600080fd5b81019080803573ffffffffffffffffffffffffffffffffffffffff169060200190929190803573ffffffffffffffffffffffffffffffffffffffff1690602001909291908035906020019092919080359060200190929190803573ffffffffffffffffffffffffffffffffffffffff1690602001909291908035906020019092919050505061098e565b6040518080602001828103825283818151815260200191508051906020019080838360005b8381101561019657808201518184015260208101905061017b565b50505050905090810190601f1680156101c35780820380516001836020036101000a031916815260200191505b509250505060405180910390f35b3480156101dd57600080fd5b5061027e600480360360c08110156101f457600080fd5b81019080803573ffffffffffffffffffffffffffffffffffffffff169060200190929190803573ffffffffffffffffffffffffffffffffffffffff1690602001909291908035906020019092919080359060200190929190803573ffffffffffffffffffffffffffffffffffffffff16906020019092919080359060200190929190505050610a68565b005b34801561028c57600080fd5b5061032d600480360360c08110156102a357600080fd5b81019080803573ffffffffffffffffffffffffffffffffffffffff169060200190929190803573ffffffffffffffffffffffffffffffffffffffff1690602001909291908035906020019092919080359060200190929190803573ffffffffffffffffffffffffffffffffffffffff16906020019092919080359060200190929190505050610c01565b604051808215151515815260200191505060405180910390f35b34801561035357600080fd5b506103f4600480360360c081101561036a57600080fd5b81019080803573ffffffffffffffffffffffffffffffffffffffff169060200190929190803573ffffffffffffffffffffffffffffffffffffffff1690602001909291908035906020019092919080359060200190929190803573ffffffffffffffffffffffffffffffffffffffff169060200190929190803590602001909291905050506113c7565b604051808215151515815260200191505060405180910390f35b34801561041a57600080fd5b506104c5600480360360e081101561043157600080fd5b81019080803573ffffffffffffffffffffffffffffffffffffffff169060200190929190803573ffffffffffffffffffffffffffffffffffffffff169060200190929190803590602001909291908035906020019092919080359060200190929190803573ffffffffffffffffffffffffffffffffffffffff16906020019092919080359060200190929190505050611514565b6040518080602001828103825283818151815260200191508051906020019080838360005b838110156105055780820151818401526020810190506104ea565b50505050905090810190601f1680156105325780820380516001836020036101000a031916815260200191505b509250505060405180910390f35b34801561054c57600080fd5b5061055561172b565b604051808273ffffffffffffffffffffffffffffffffffffffff1673ffffffffffffffffffffffffffffffffffffffff16815260200191505060405180910390f35b3480156105a357600080fd5b506105ac611750565b604051808273ffffffffffffffffffffffffffffffffffffffff1673ffffffffffffffffffffffffffffffffffffffff16815260200191505060405180910390f35b3480156105fa57600080fd5b5061069b600480360360c081101561061157600080fd5b81019080803573ffffffffffffffffffffffffffffffffffffffff169060200190929190803573ffffffffffffffffffffffffffffffffffffffff1690602001909291908035906020019092919080359060200190929190803573ffffffffffffffffffffffffffffffffffffffff16906020019092919080359060200190929190505050611768565b005b610714600480360360208110156106b357600080fd5b81019080803590602001906401000000008111156106d057600080fd5b8201836020820111156106e257600080fd5b8035906020019184600183028401116401000000008311171561070457600080fd5b9091929391929390505050611c56565b005b34801561072257600080fd5b5061079a6004803603602081101561073957600080fd5b810190808035906020019064010000000081111561075657600080fd5b82018360208201111561076857600080fd5b8035906020019184600183028401116401000000008311171561078a57600080fd5b9091929391929390505050611d26565b604051808673ffffffffffffffffffffffffffffffffffffffff1673ffffffffffffffffffffffffffffffffffffffff1681526020018573ffffffffffffffffffffffffffffffffffffffff1673ffffffffffffffffffffffffffffffffffffffff1681526020018481526020018381526020018273ffffffffffffffffffffffffffffffffffffffff1673ffffffffffffffffffffffffffffffffffffffff1681526020019550505050505060405180910390f35b34801561085c57600080fd5b506108896004803603602081101561087357600080fd5b8101908080359060200190929190505050611ddd565b6040518082815260200191505060405180910390f35b3480156108ab57600080fd5b5061094c600480360360c08110156108c257600080fd5b81019080803573ffffffffffffffffffffffffffffffffffffffff169060200190929190803573ffffffffffffffffffffffffffffffffffffffff1690602001909291908035906020019092919080359060200190929190803573ffffffffffffffffffffffffffffffffffffffff16906020019092919080359060200190929190505050611df5565b604051808273ffffffffffffffffffffffffffffffffffffffff1673ffffffffffffffffffffffffffffffffffffffff16815260200191505060405180910390f35b6060868686868686604051602001808773ffffffffffffffffffffffffffffffffffffffff1673ffffffffffffffffffffffffffffffffffffffff1681526020018673ffffffffffffffffffffffffffffffffffffffff1673ffffffffffffffffffffffffffffffffffffffff1681526020018581526020018481526020018373ffffffffffffffffffffffffffffffffffffffff1673ffffffffffffffffffffffffffffffffffffffff168152602001828152602001965050505050505060405160208183030381529060405290509695505050505050565b8173ffffffffffffffffffffffffffffffffffffffff163373ffffffffffffffffffffffffffffffffffffffff1614610b09576040517f08c379a00000000000000000000000000000000000000000000000000000000081526004018080602001828103825260158152602001807f6f6e6c79206f776e65722063616e2063616e63656c000000000000000000000081525060200191505060405180910390fd5b6000610b19878787878787611e19565b905073eeeeeeeeeeeeeeeeeeeeeeeeeeeeeeeeeeeeeeee73ffffffffffffffffffffffffffffffffffffffff168773ffffffffffffffffffffffffffffffffffffffff161415610be157600060016000838152602001908152602001600020549050600060016000848152602001908152602001600020819055503373ffffffffffffffffffffffffffffffffffffffff166108fc829081150290604051600060405180830381858888f19350505050158015610bda573d6000803e3d6000fd5b5050610bf8565b610bf6873383611efa9092919063ffffffff16565b505b50505050505050565b600080610c12888888888888611e19565b9050600073eeeeeeeeeeeeeeeeeeeeeeeeeeeeeeeeeeeeeeee73ffffffffffffffffffffffffffffffffffffffff168973ffffffffffffffffffffffffffffffffffffffff161415610c795760016000838152602001908152602001600020549050610d3c565b8873ffffffffffffffffffffffffffffffffffffffff166370a08231610c9e846122a0565b6040518263ffffffff1660e01b8152600401808273ffffffffffffffffffffffffffffffffffffffff1673ffffffffffffffffffffffffffffffffffffffff16815260200191505060206040518083038186803b158015610cfe57600080fd5b505afa158015610d12573d6000803e3d6000fd5b505050506040513d6020811015610d2857600080fd5b810190808051906020019092919050505090505b600073eeeeeeeeeeeeeeeeeeeeeeeeeeeeeeeeeeeeeeee73ffffffffffffffffffffffffffffffffffffffff168a73ffffffffffffffffffffffffffffffffffffffff161415610f09576000610d9b888461238590919063ffffffff16565b90506000809054906101000a900473ffffffffffffffffffffffffffffffffffffffff1673ffffffffffffffffffffffffffffffffffffffff166306f2bf628b6040518263ffffffff1660e01b8152600401808273ffffffffffffffffffffffffffffffffffffffff1673ffffffffffffffffffffffffffffffffffffffff16815260200191505060206040518083038186803b158015610e3b57600080fd5b505afa158015610e4f573d6000803e3d6000fd5b505050506040513d6020811015610e6557600080fd5b810190808051906020019092919050505073ffffffffffffffffffffffffffffffffffffffff1663cd7724c3826040518263ffffffff1660e01b81526004018082815260200191505060206040518083038186803b158015610ec657600080fd5b505afa158015610eda573d6000803e3d6000fd5b505050506040513d6020811015610ef057600080fd5b81019080805190602001909291905050509150506113b4565b73eeeeeeeeeeeeeeeeeeeeeeeeeeeeeeeeeeeeeeee73ffffffffffffffffffffffffffffffffffffffff168973ffffffffffffffffffffffffffffffffffffffff1614156110d1576000809054906101000a900473ffffffffffffffffffffffffffffffffffffffff1673ffffffffffffffffffffffffffffffffffffffff166306f2bf628b6040518263ffffffff1660e01b8152600401808273ffffffffffffffffffffffffffffffffffffffff1673ffffffffffffffffffffffffffffffffffffffff16815260200191505060206040518083038186803b158015610fef57600080fd5b505afa158015611003573d6000803e3d6000fd5b505050506040513d602081101561101957600080fd5b810190808051906020019092919050505073ffffffffffffffffffffffffffffffffffffffff166395b68fe7836040518263ffffffff1660e01b81526004018082815260200191505060206040518083038186803b15801561107a57600080fd5b505afa15801561108e573d6000803e3d6000fd5b505050506040513d60208110156110a457600080fd5b810190808051906020019092919050505090506110ca878261238590919063ffffffff16565b90506113b3565b60008060009054906101000a900473ffffffffffffffffffffffffffffffffffffffff1673ffffffffffffffffffffffffffffffffffffffff166306f2bf628c6040518263ffffffff1660e01b8152600401808273ffffffffffffffffffffffffffffffffffffffff1673ffffffffffffffffffffffffffffffffffffffff16815260200191505060206040518083038186803b15801561117157600080fd5b505afa158015611185573d6000803e3d6000fd5b505050506040513d602081101561119b57600080fd5b810190808051906020019092919050505073ffffffffffffffffffffffffffffffffffffffff166395b68fe7846040518263ffffffff1660e01b81526004018082815260200191505060206040518083038186803b1580156111fc57600080fd5b505afa158015611210573d6000803e3d6000fd5b505050506040513d602081101561122657600080fd5b810190808051906020019092919050505090506000809054906101000a900473ffffffffffffffffffffffffffffffffffffffff1673ffffffffffffffffffffffffffffffffffffffff166306f2bf628b6040518263ffffffff1660e01b8152600401808273ffffffffffffffffffffffffffffffffffffffff1673ffffffffffffffffffffffffffffffffffffffff16815260200191505060206040518083038186803b1580156112d757600080fd5b505afa1580156112eb573d6000803e3d6000fd5b505050506040513d602081101561130157600080fd5b810190808051906020019092919050505073ffffffffffffffffffffffffffffffffffffffff1663cd7724c36113408a8461238590919063ffffffff16565b6040518263ffffffff1660e01b81526004018082815260200191505060206040518083038186803b15801561137457600080fd5b505afa158015611388573d6000803e3d6000fd5b505050506040513d602081101561139e57600080fd5b81019080805190602001909291905050509150505b5b8781101593505050509695505050505050565b6000806113d8888888888888611e19565b905073eeeeeeeeeeeeeeeeeeeeeeeeeeeeeeeeeeeeeeee73ffffffffffffffffffffffffffffffffffffffff168873ffffffffffffffffffffffffffffffffffffffff1614156114425760006001600083815260200190815260200160002054141591505061150a565b60008873ffffffffffffffffffffffffffffffffffffffff166370a08231611469846122a0565b6040518263ffffffff1660e01b8152600401808273ffffffffffffffffffffffffffffffffffffffff1673ffffffffffffffffffffffffffffffffffffffff16815260200191505060206040518083038186803b1580156114c957600080fd5b505afa1580156114dd573d6000803e3d6000fd5b505050506040513d60208110156114f357600080fd5b810190808051906020019092919050505014159150505b9695505050505050565b60608773ffffffffffffffffffffffffffffffffffffffff1663a9059cbb905060e01b611545898988888888611df5565b878a8a89898989604051602001808773ffffffffffffffffffffffffffffffffffffffff1673ffffffffffffffffffffffffffffffffffffffff1681526020018673ffffffffffffffffffffffffffffffffffffffff1673ffffffffffffffffffffffffffffffffffffffff1681526020018581526020018481526020018373ffffffffffffffffffffffffffffffffffffffff1673ffffffffffffffffffffffffffffffffffffffff1681526020018281526020019650505050505050604051602081830303815290604052604051602401808473ffffffffffffffffffffffffffffffffffffffff1673ffffffffffffffffffffffffffffffffffffffff16815260200183815260200180602001828103825283818151815260200191508051906020019080838360005b8381101561168d578082015181840152602081019050611672565b50505050905090810190601f1680156116ba5780820380516001836020036101000a031916815260200191505b50945050505050604051602081830303815290604052907bffffffffffffffffffffffffffffffffffffffffffffffffffffffff19166020820180517bffffffffffffffffffffffffffffffffffffffffffffffffffffffff83818316178352505050509050979650505050505050565b6000809054906101000a900473ffffffffffffffffffffffffffffffffffffffff1681565b73eeeeeeeeeeeeeeeeeeeeeeeeeeeeeeeeeeeeeeee81565b6000611778878787878787611e19565b9050600061178688836123cf565b9050600081116117fe576040517f08c379a00000000000000000000000000000000000000000000000000000000081526004018080602001828103825260158152602001807f6f7264657220646f6573206e6f7420657869737473000000000000000000000081525060200191505060405180910390fd5b600073eeeeeeeeeeeeeeeeeeeeeeeeeeeeeeeeeeeeeeee73ffffffffffffffffffffffffffffffffffffffff168973ffffffffffffffffffffffffffffffffffffffff1614156118db57600061185d878461238590919063ffffffff16565b905061188c6000809054906101000a900473ffffffffffffffffffffffffffffffffffffffff168a838961246b565b91503373ffffffffffffffffffffffffffffffffffffffff166108fc889081150290604051600060405180830381858888f193505050501580156118d4573d6000803e3d6000fd5b5050611ab6565b73eeeeeeeeeeeeeeeeeeeeeeeeeeeeeeeeeeeeeeee73ffffffffffffffffffffffffffffffffffffffff168873ffffffffffffffffffffffffffffffffffffffff1614156119fa576119506000809054906101000a900473ffffffffffffffffffffffffffffffffffffffff168a8430612713565b9050611965868261238590919063ffffffff16565b90503373ffffffffffffffffffffffffffffffffffffffff166108fc879081150290604051600060405180830381858888f193505050501580156119ad573d6000803e3d6000fd5b508473ffffffffffffffffffffffffffffffffffffffff166108fc829081150290604051600060405180830381858888f193505050501580156119f4573d6000803e3d6000fd5b50611ab5565b6000611a296000809054906101000a900473ffffffffffffffffffffffffffffffffffffffff168b8530612713565b90503373ffffffffffffffffffffffffffffffffffffffff166108fc889081150290604051600060405180830381858888f19350505050158015611a71573d6000803e3d6000fd5b50611ab16000809054906101000a900473ffffffffffffffffffffffffffffffffffffffff168a611aab8a8561238590919063ffffffff16565b8961246b565b9150505b5b86811015611b2c576040517f08c379a000000000000000000000000000000000000000000000000000000000815260040180806020018281038252601a8152602001807f73656c6c2072657475726e206973206e6f7420656e6f7567687400000000000081525060200191505060405180910390fd5b7f4ad0cd28557be54cef2321b6d39aeb9ff437707205a4b3c808ae81e6508f405d898984848a8a8a33604051808973ffffffffffffffffffffffffffffffffffffffff1673ffffffffffffffffffffffffffffffffffffffff1681526020018873ffffffffffffffffffffffffffffffffffffffff1673ffffffffffffffffffffffffffffffffffffffff1681526020018781526020018681526020018581526020018473ffffffffffffffffffffffffffffffffffffffff1673ffffffffffffffffffffffffffffffffffffffff1681526020018381526020018273ffffffffffffffffffffffffffffffffffffffff1673ffffffffffffffffffffffffffffffffffffffff1681526020019850505050505050505060405180910390a1505050505050505050565b6000828260405180838380828437808301925050509250505060405180910390209050611c9f346001600084815260200190815260200160002054612c7490919063ffffffff16565b60016000838152602001908152602001600020819055507fb21e79db45360eb32db67089c680a222fab2c210c4ac7239730c0dbc6664c2a734848460405180848152602001806020018281038252848482818152602001925080828437600081840152601f19601f82011690508083019250505094505050505060405180910390a1505050565b6000806000806000868660a0811015611d3e57600080fd5b81019080803573ffffffffffffffffffffffffffffffffffffffff169060200190929190803573ffffffffffffffffffffffffffffffffffffffff1690602001909291908035906020019092919080359060200190929190803573ffffffffffffffffffffffffffffffffffffffff16906020019092919050505084945083935080955081965082975083985084995050505050509295509295909350565b60016020528060005260406000206000915090505481565b6000611e0d611e08888888888888611e19565b6122a0565b90509695505050505050565b6000868686868686604051602001808773ffffffffffffffffffffffffffffffffffffffff1673ffffffffffffffffffffffffffffffffffffffff1681526020018673ffffffffffffffffffffffffffffffffffffffff1673ffffffffffffffffffffffffffffffffffffffff1681526020018581526020018481526020018373ffffffffffffffffffffffffffffffffffffffff1673ffffffffffffffffffffffffffffffffffffffff16815260200182815260200196505050505050506040516020818303038152906040528051906020012090509695505050505050565b60008060606040518060400160405280601c81526020017f6012600081600a8239f360008060448082803781806038355af132ff000000008152509050858151602083016000f59150813b611f4e57600080fd5b8473ffffffffffffffffffffffffffffffffffffffff166370a08231836040518263ffffffff1660e01b8152600401808273ffffffffffffffffffffffffffffffffffffffff1673ffffffffffffffffffffffffffffffffffffffff16815260200191505060206040518083038186803b158015611fcb57600080fd5b505afa158015611fdf573d6000803e3d6000fd5b505050506040513d6020811015611ff557600080fd5b8101908080519060200190929190505050925060008273ffffffffffffffffffffffffffffffffffffffff168673ffffffffffffffffffffffffffffffffffffffff1663a9059cbb905060e01b8686604051602401808373ffffffffffffffffffffffffffffffffffffffff1673ffffffffffffffffffffffffffffffffffffffff16815260200182815260200192505050604051602081830303815290604052907bffffffffffffffffffffffffffffffffffffffffffffffffffffffff19166020820180517bffffffffffffffffffffffffffffffffffffffffffffffffffffffff8381831617835250505050876040516020018083805190602001908083835b6020831061211b57805182526020820191506020810190506020830392506120f8565b6001836020036101000a0380198251168184511680821785525050505050509050018273ffffffffffffffffffffffffffffffffffffffff1673ffffffffffffffffffffffffffffffffffffffff1660601b8152601401925050506040516020818303038152906040526040518082805190602001908083835b602083106121b85780518252602082019150602081019050602083039250612195565b6001836020036101000a0380198251168184511680821785525050505050509050019150506000604051808303816000865af19150503d806000811461221a576040519150601f19603f3d011682016040523d82523d6000602084013e61221f565b606091505b5050905080612296576040517f08c379a00000000000000000000000000000000000000000000000000000000081526004018080602001828103825260148152602001807f6572726f722070756c6c696e6720746f6b656e7300000000000000000000000081525060200191505060405180910390fd5b5050509392505050565b600060ff60f81b30837ffa3da1081bc86587310fce8f3a5309785fc567b9b20875900cb289302d6bfa9760001b60405160200180857effffffffffffffffffffffffffffffffffffffffffffffffffffffffffffff19167effffffffffffffffffffffffffffffffffffffffffffffffffffffffffffff191681526001018473ffffffffffffffffffffffffffffffffffffffff1673ffffffffffffffffffffffffffffffffffffffff1660601b81526014018381526020018281526020019450505050506040516020818303038152906040528051906020012060001c9050919050565b60006123c783836040518060400160405280601e81526020017f536166654d6174683a207375627472616374696f6e206f766572666c6f770000815250612cfc565b905092915050565b600073eeeeeeeeeeeeeeeeeeeeeeeeeeeeeeeeeeeeeeee73ffffffffffffffffffffffffffffffffffffffff168373ffffffffffffffffffffffffffffffffffffffff16141561244d576001600083815260200190815260200160002054905060006001600084815260200190815260200160002081905550612465565b612462833084611efa9092919063ffffffff16565b90505b92915050565b6000808573ffffffffffffffffffffffffffffffffffffffff166306f2bf62866040518263ffffffff1660e01b8152600401808273ffffffffffffffffffffffffffffffffffffffff1673ffffffffffffffffffffffffffffffffffffffff16815260200191505060206040518083038186803b1580156124eb57600080fd5b505afa1580156124ff573d6000803e3d6000fd5b505050506040513d602081101561251557600080fd5b810190808051906020019092919050505090503073ffffffffffffffffffffffffffffffffffffffff168373ffffffffffffffffffffffffffffffffffffffff161461264f578073ffffffffffffffffffffffffffffffffffffffff1663ad65d76d8560017fffffffffffffffffffffffffffffffffffffffffffffffffffffffffffffffff876040518563ffffffff1660e01b8152600401808481526020018381526020018273ffffffffffffffffffffffffffffffffffffffff1673ffffffffffffffffffffffffffffffffffffffff16815260200193505050506020604051808303818588803b15801561260b57600080fd5b505af115801561261f573d6000803e3d6000fd5b50505050506040513d602081101561263657600080fd5b810190808051906020019092919050505091505061270b565b8073ffffffffffffffffffffffffffffffffffffffff1663f39b5b9b8560017fffffffffffffffffffffffffffffffffffffffffffffffffffffffffffffffff6040518463ffffffff1660e01b815260040180838152602001828152602001925050506020604051808303818588803b1580156126cb57600080fd5b505af11580156126df573d6000803e3d6000fd5b50505050506040513d60208110156126f657600080fd5b81019080805190602001909291905050509150505b949350505050565b6000808573ffffffffffffffffffffffffffffffffffffffff166306f2bf62866040518263ffffffff1660e01b8152600401808273ffffffffffffffffffffffffffffffffffffffff1673ffffffffffffffffffffffffffffffffffffffff16815260200191505060206040518083038186803b15801561279357600080fd5b505afa1580156127a7573d6000803e3d6000fd5b505050506040513d60208110156127bd57600080fd5b8101908080519060200190929190505050905060008573ffffffffffffffffffffffffffffffffffffffff1663dd62ed3e30846040518363ffffffff1660e01b8152600401808373ffffffffffffffffffffffffffffffffffffffff1673ffffffffffffffffffffffffffffffffffffffff1681526020018273ffffffffffffffffffffffffffffffffffffffff1673ffffffffffffffffffffffffffffffffffffffff1681526020019250505060206040518083038186803b15801561288357600080fd5b505afa158015612897573d6000803e3d6000fd5b505050506040513d60208110156128ad57600080fd5b8101908080519060200190929190505050905084811015612a795760008114612995578573ffffffffffffffffffffffffffffffffffffffff1663095ea7b38360006040518363ffffffff1660e01b8152600401808373ffffffffffffffffffffffffffffffffffffffff1673ffffffffffffffffffffffffffffffffffffffff16815260200182815260200192505050602060405180830381600087803b15801561295857600080fd5b505af115801561296c573d6000803e3d6000fd5b505050506040513d602081101561298257600080fd5b8101908080519060200190929190505050505b8573ffffffffffffffffffffffffffffffffffffffff1663095ea7b3837fffffffffffffffffffffffffffffffffffffffffffffffffffffffffffffffff6040518363ffffffff1660e01b8152600401808373ffffffffffffffffffffffffffffffffffffffff1673ffffffffffffffffffffffffffffffffffffffff16815260200182815260200192505050602060405180830381600087803b158015612a3c57600080fd5b505af1158015612a50573d6000803e3d6000fd5b505050506040513d6020811015612a6657600080fd5b8101908080519060200190929190505050505b3073ffffffffffffffffffffffffffffffffffffffff168473ffffffffffffffffffffffffffffffffffffffff1614612ba8578173ffffffffffffffffffffffffffffffffffffffff16637237e0318660017fffffffffffffffffffffffffffffffffffffffffffffffffffffffffffffffff886040518563ffffffff1660e01b8152600401808581526020018481526020018381526020018273ffffffffffffffffffffffffffffffffffffffff1673ffffffffffffffffffffffffffffffffffffffff168152602001945050505050602060405180830381600087803b158015612b6457600080fd5b505af1158015612b78573d6000803e3d6000fd5b505050506040513d6020811015612b8e57600080fd5b810190808051906020019092919050505092505050612c6c565b8173ffffffffffffffffffffffffffffffffffffffff166395e3c50b8660017fffffffffffffffffffffffffffffffffffffffffffffffffffffffffffffffff6040518463ffffffff1660e01b8152600401808481526020018381526020018281526020019350505050602060405180830381600087803b158015612c2c57600080fd5b505af1158015612c40573d6000803e3d6000fd5b505050506040513d6020811015612c5657600080fd5b8101908080519060200190929190505050925050505b949350505050565b600080828401905083811015612cf2576040517f08c379a000000000000000000000000000000000000000000000000000000000815260040180806020018281038252601b8152602001807f536166654d6174683a206164646974696f6e206f766572666c6f77000000000081525060200191505060405180910390fd5b8091505092915050565b6000838311158290612da9576040517f08c379a00000000000000000000000000000000000000000000000000000000081526004018080602001828103825283818151815260200191508051906020019080838360005b83811015612d6e578082015181840152602081019050612d53565b50505050905090810190601f168015612d9b5780820380516001836020036101000a031916815260200191505b509250505060405180910390fd5b506000838503905080915050939250505056fea265627a7a72315820b353f877bbb4be4adcc06c5bed13dd3da8078d6f5eac2fc0e7b4332a4d871e9c64736f6c634300050b0032",
  "source": "pragma solidity ^0.5.11;\n\n\nimport \"./commons/SafeMath.sol\";\nimport \"./interfaces/IERC20.sol\";\nimport \"./interfaces/UniswapExchange.sol\";\nimport \"./interfaces/UniswapFactory.sol\";\nimport \"./libs/Fabric.sol\";\n\n\ncontract UniswapEX {\n    using SafeMath for uint256;\n    using Fabric for bytes32;\n\n    event DepositETH(\n        uint256 _amount,\n        bytes _data\n    );\n\n    event Executed(\n        address _from,\n        address _to,\n        uint256 _amount,\n        uint256 _bought,\n        uint256 _fee,\n        address _owner,\n        bytes32 _salt,\n        address _relayer\n    );\n\n    address public constant ETH_ADDRESS = address(0x00eeeeeeeeeeeeeeeeeeeeeeeeeeeeeeeeeeeeeeee);\n    uint256 private constant never = uint(-1);\n\n    UniswapFactory public uniswapFactory;\n\n    mapping(bytes32 => uint256) public ethDeposits;\n\n    constructor(UniswapFactory _uniswapFactory) public {\n        uniswapFactory = _uniswapFactory;\n    }\n\n    function _ethToToken(\n        UniswapFactory _uniswapFactory,\n        IERC20 _token,\n        uint256 _amount,\n        address _dest\n    ) private returns (uint256) {\n        UniswapExchange uniswap = _uniswapFactory.getExchange(address(_token));\n\n        if (_dest != address(this)) {\n            return uniswap.ethToTokenTransferInput.value(_amount)(1, never, _dest);\n        } else {\n            return uniswap.ethToTokenSwapInput.value(_amount)(1, never);\n        }\n    }\n\n    function _tokenToEth(\n        UniswapFactory _uniswapFactory,\n        IERC20 _token,\n        uint256 _amount,\n        address _dest\n    ) private returns (uint256) {\n        UniswapExchange uniswap = _uniswapFactory.getExchange(address(_token));\n\n        // Check if previues allowance is enought\n        // and approve Uniswap if is not\n        uint256 prevAllowance = _token.allowance(address(this), address(uniswap));\n        if (prevAllowance < _amount) {\n            if (prevAllowance != 0) {\n                _token.approve(address(uniswap), 0);\n            }\n\n            _token.approve(address(uniswap), uint(-1));\n        }\n\n        // Execute the trade\n        if (_dest != address(this)) {\n            return uniswap.tokenToEthTransferInput(_amount, 1, never, _dest);\n        } else {\n            return uniswap.tokenToEthSwapInput(_amount, 1, never);\n        }\n    }\n\n    function _pull(\n        IERC20 _from,\n        bytes32 _key\n    ) private returns (uint256 amount) {\n        if (address(_from) == ETH_ADDRESS) {\n            amount = ethDeposits[_key];\n            ethDeposits[_key] = 0;\n        } else {\n            amount = _key.executeVault(_from, address(this));\n        }\n    }\n\n    function _keyOf(\n        IERC20 _from,\n        IERC20 _to,\n        uint256 _return,\n        uint256 _fee,\n        address payable _owner,\n        bytes32 _salt\n    ) private pure returns (bytes32) {\n        return keccak256(\n            abi.encode(\n                _from,\n                _to,\n                _return,\n                _fee,\n                _owner,\n                _salt\n            )\n        );\n    }\n\n    function vaultOfOrder(\n        IERC20 _from,\n        IERC20 _to,\n        uint256 _return,\n        uint256 _fee,\n        address payable _owner,\n        bytes32 _salt\n    ) public view returns (address) {\n        return _keyOf(\n            _from,\n            _to,\n            _return,\n            _fee,\n            _owner,\n            _salt\n        ).getVault();\n    }\n\n    function encodeTokenOrder(\n        IERC20 _from,\n        IERC20 _to,\n        uint256 _amount,\n        uint256 _return,\n        uint256 _fee,\n        address payable _owner,\n        bytes32 _salt\n    ) external view returns (bytes memory) {\n        return abi.encodeWithSelector(\n            _from.transfer.selector,\n            vaultOfOrder(\n                _from,\n                _to,\n                _return,\n                _fee,\n                _owner,\n                _salt\n            ),\n            _amount,\n            abi.encode(\n                _from,\n                _to,\n                _return,\n                _fee,\n                _owner,\n                _salt\n            )\n        );\n    }\n\n    function encode(\n        address _from,\n        address _to,\n        uint256 _return,\n        uint256 _fee,\n        address payable _owner,\n        bytes32 _salt\n    ) external pure returns (bytes memory) {\n        return abi.encode(\n            _from,\n            _to,\n            _return,\n            _fee,\n            _owner,\n            _salt\n        );\n    }\n\n    function decode(\n        bytes calldata _data\n    ) external pure returns (\n        address _from,\n        address _to,\n        uint256 _return,\n        uint256 _fee,\n        address payable _owner\n    ) {\n        (\n            _from,\n            _to,\n            _return,\n            _fee,\n            _owner\n        ) = abi.decode(\n            _data,\n            (address, address, uint256, uint256, address)\n        );\n    }\n\n    function exists(\n        IERC20 _from,\n        IERC20 _to,\n        uint256 _return,\n        uint256 _fee,\n        address payable _owner,\n        bytes32 _salt\n    ) external view returns (bool) {\n        bytes32 key = _keyOf(\n            _from,\n            _to,\n            _return,\n            _fee,\n            _owner,\n            _salt\n        );\n\n        if (address(_from) == ETH_ADDRESS) {\n            return ethDeposits[key] != 0;\n        } else {\n            return _from.balanceOf(key.getVault()) != 0;\n        }\n    }\n\n    function canFill(\n        IERC20 _from,\n        IERC20 _to,\n        uint256 _return,\n        uint256 _fee,\n        address payable _owner,\n        bytes32 _salt\n    ) external view returns (bool) {\n        bytes32 key = _keyOf(\n            _from,\n            _to,\n            _return,\n            _fee,\n            _owner,\n            _salt\n        );\n\n        // Pull amount\n        uint256 amount;\n        if (address(_from) == ETH_ADDRESS) {\n            amount = ethDeposits[key];\n        } else {\n            amount = _from.balanceOf(key.getVault());\n        }\n\n        uint256 bought;\n\n        if (address(_from) == ETH_ADDRESS) {\n            uint256 sell = amount.sub(_fee);\n            bought = uniswapFactory.getExchange(address(_to)).getEthToTokenInputPrice(sell);\n        } else if (address(_to) == ETH_ADDRESS) {\n            bought = uniswapFactory.getExchange(address(_from)).getTokenToEthInputPrice(amount);\n            bought = bought.sub(_fee);\n        } else {\n            uint256 boughtEth = uniswapFactory.getExchange(address(_from)).getTokenToEthInputPrice(amount);\n            bought = uniswapFactory.getExchange(address(_to)).getEthToTokenInputPrice(boughtEth.sub(_fee));\n        }\n\n        return bought >= _return;\n    }\n\n    function depositETH(\n        bytes calldata _data\n    ) external payable {\n        bytes32 key = keccak256(_data);\n        ethDeposits[key] = ethDeposits[key].add(msg.value);\n        emit DepositETH(msg.value, _data);\n    }\n\n    function cancel(\n        IERC20 _from,\n        IERC20 _to,\n        uint256 _return,\n        uint256 _fee,\n        address payable _owner,\n        bytes32 _salt\n    ) external {\n        require(msg.sender == _owner, \"only owner can cancel\");\n        bytes32 key = _keyOf(\n            _from,\n            _to,\n            _return,\n            _fee,\n            _owner,\n            _salt\n        );\n\n        if (address(_from) == ETH_ADDRESS) {\n            uint256 amount = ethDeposits[key];\n            ethDeposits[key] = 0;\n            msg.sender.transfer(amount);\n        } else {\n            key.executeVault(_from, msg.sender);\n        }\n    }\n\n    function execute(\n        IERC20 _from,\n        IERC20 _to,\n        uint256 _return,\n        uint256 _fee,\n        address payable _owner,\n        bytes32 _salt\n    ) external {\n        bytes32 key = _keyOf(\n            _from,\n            _to,\n            _return,\n            _fee,\n            _owner,\n            _salt\n        );\n\n        // Pull amount\n        uint256 amount = _pull(_from, key);\n        require(amount > 0, \"order does not exists\");\n\n        uint256 bought;\n\n        if (address(_from) == ETH_ADDRESS) {\n            // Keep some eth for paying the fee\n            uint256 sell = amount.sub(_fee);\n            bought = _ethToToken(uniswapFactory, _to, sell, _owner);\n            msg.sender.transfer(_fee);\n        } else if (address(_to) == ETH_ADDRESS) {\n            // Convert\n            bought = _tokenToEth(uniswapFactory, _from, amount, address(this));\n            bought = bought.sub(_fee);\n\n            // Send fee and amount bought\n            msg.sender.transfer(_fee);\n            _owner.transfer(bought);\n        } else {\n            // Convert from FromToken to ETH\n            uint256 boughtEth = _tokenToEth(uniswapFactory, _from, amount, address(this));\n            msg.sender.transfer(_fee);\n\n            // Convert from ETH to ToToken\n            bought = _ethToToken(uniswapFactory, _to, boughtEth.sub(_fee), _owner);\n        }\n\n        require(bought >= _return, \"sell return is not enought\");\n\n        emit Executed(\n            address(_from),\n            address(_to),\n            amount,\n            bought,\n            _fee,\n            _owner,\n            _salt,\n            msg.sender\n        );\n    }\n\n    function() external payable { }\n}\n",
  "sourcePath": "/Users/agusx1211/Documents/workspaces/uniswapex/contracts/UniswapEX.sol",
  "compiler": {
    "name": "solc",
    "version": "0.5.11+commit.c082d0b4.Emscripten.clang"
  },
  "schemaVersion": "3.0.11",
  "updatedAt": "2019-09-14T11:13:08.931Z",
  "devdoc": {
    "methods": {}
  },
  "userdoc": {
    "methods": {}
  }
}